{
  "contractName": "FurDetective",
  "abi": [
    {
      "inputs": [],
      "stateMutability": "nonpayable",
      "type": "constructor"
    },
    {
      "anonymous": false,
      "inputs": [
        {
          "indexed": false,
          "internalType": "string",
          "name": "fullName",
          "type": "string"
        },
        {
          "indexed": false,
          "internalType": "string",
          "name": "cellPhone",
          "type": "string"
        },
        {
          "indexed": false,
          "internalType": "string",
          "name": "Location",
          "type": "string"
        },
        {
          "indexed": false,
          "internalType": "string",
          "name": "email",
          "type": "string"
        },
        {
          "indexed": false,
          "internalType": "uint256",
          "name": "timeStamp",
          "type": "uint256"
        }
      ],
      "name": "OwnerInfoEvent",
      "type": "event"
    },
    {
      "anonymous": false,
      "inputs": [
        {
          "indexed": false,
          "internalType": "string",
          "name": "name",
          "type": "string"
        },
        {
          "indexed": false,
          "internalType": "string",
          "name": "chipId",
          "type": "string"
        },
        {
          "indexed": false,
          "internalType": "string",
          "name": "appleTag",
          "type": "string"
        },
        {
          "indexed": false,
          "internalType": "string",
          "name": "qrCode",
          "type": "string"
        },
        {
          "indexed": false,
          "internalType": "string",
          "name": "animalType",
          "type": "string"
        },
        {
          "indexed": false,
          "internalType": "string",
          "name": "gender",
          "type": "string"
        },
        {
          "indexed": false,
          "internalType": "string",
          "name": "breed",
          "type": "string"
        },
        {
          "indexed": false,
          "internalType": "string",
          "name": "description",
          "type": "string"
        },
        {
          "indexed": false,
          "internalType": "uint256",
          "name": "timeStamp",
          "type": "uint256"
        },
        {
          "indexed": false,
          "internalType": "address",
          "name": "sender",
          "type": "address"
        }
      ],
      "name": "RegisterPetEvent",
      "type": "event"
    },
    {
      "inputs": [
        {
          "internalType": "address",
          "name": "",
          "type": "address"
        }
      ],
      "name": "registeredPetsMapping",
      "outputs": [
        {
          "internalType": "string",
          "name": "name",
          "type": "string"
        },
        {
          "internalType": "uint256",
          "name": "chipId",
          "type": "uint256"
        },
        {
          "internalType": "string",
          "name": "appleTag",
          "type": "string"
        },
        {
          "internalType": "string",
          "name": "qrCode",
          "type": "string"
        },
        {
          "internalType": "string",
          "name": "animalType",
          "type": "string"
        },
        {
          "internalType": "string",
          "name": "gender",
          "type": "string"
        },
        {
          "internalType": "string",
          "name": "breed",
          "type": "string"
        },
        {
          "internalType": "string",
          "name": "description",
          "type": "string"
        },
        {
          "internalType": "uint256",
          "name": "timeStamp",
          "type": "uint256"
        },
        {
          "internalType": "address",
          "name": "sender",
          "type": "address"
        }
      ],
      "stateMutability": "view",
      "type": "function",
      "constant": true
    },
    {
      "inputs": [
        {
          "internalType": "string",
          "name": "",
          "type": "string"
        }
      ],
      "name": "searchPetByAppleTag",
      "outputs": [
        {
          "internalType": "string",
          "name": "name",
          "type": "string"
        },
        {
          "internalType": "uint256",
          "name": "chipId",
          "type": "uint256"
        },
        {
          "internalType": "string",
          "name": "appleTag",
          "type": "string"
        },
        {
          "internalType": "string",
          "name": "qrCode",
          "type": "string"
        },
        {
          "internalType": "string",
          "name": "animalType",
          "type": "string"
        },
        {
          "internalType": "string",
          "name": "gender",
          "type": "string"
        },
        {
          "internalType": "string",
          "name": "breed",
          "type": "string"
        },
        {
          "internalType": "string",
          "name": "description",
          "type": "string"
        },
        {
          "internalType": "uint256",
          "name": "timeStamp",
          "type": "uint256"
        },
        {
          "internalType": "address",
          "name": "sender",
          "type": "address"
        }
      ],
      "stateMutability": "view",
      "type": "function",
      "constant": true
    },
    {
      "inputs": [
        {
          "internalType": "uint256",
          "name": "",
          "type": "uint256"
        }
      ],
      "name": "searchPetByChipId",
      "outputs": [
        {
          "internalType": "string",
          "name": "name",
          "type": "string"
        },
        {
          "internalType": "uint256",
          "name": "chipId",
          "type": "uint256"
        },
        {
          "internalType": "string",
          "name": "appleTag",
          "type": "string"
        },
        {
          "internalType": "string",
          "name": "qrCode",
          "type": "string"
        },
        {
          "internalType": "string",
          "name": "animalType",
          "type": "string"
        },
        {
          "internalType": "string",
          "name": "gender",
          "type": "string"
        },
        {
          "internalType": "string",
          "name": "breed",
          "type": "string"
        },
        {
          "internalType": "string",
          "name": "description",
          "type": "string"
        },
        {
          "internalType": "uint256",
          "name": "timeStamp",
          "type": "uint256"
        },
        {
          "internalType": "address",
          "name": "sender",
          "type": "address"
        }
      ],
      "stateMutability": "view",
      "type": "function",
      "constant": true
    },
    {
      "inputs": [
        {
          "internalType": "string",
          "name": "",
          "type": "string"
        }
      ],
      "name": "searchPetByQrCode",
      "outputs": [
        {
          "internalType": "string",
          "name": "name",
          "type": "string"
        },
        {
          "internalType": "uint256",
          "name": "chipId",
          "type": "uint256"
        },
        {
          "internalType": "string",
          "name": "appleTag",
          "type": "string"
        },
        {
          "internalType": "string",
          "name": "qrCode",
          "type": "string"
        },
        {
          "internalType": "string",
          "name": "animalType",
          "type": "string"
        },
        {
          "internalType": "string",
          "name": "gender",
          "type": "string"
        },
        {
          "internalType": "string",
          "name": "breed",
          "type": "string"
        },
        {
          "internalType": "string",
          "name": "description",
          "type": "string"
        },
        {
          "internalType": "uint256",
          "name": "timeStamp",
          "type": "uint256"
        },
        {
          "internalType": "address",
          "name": "sender",
          "type": "address"
        }
      ],
      "stateMutability": "view",
      "type": "function",
      "constant": true
    },
    {
      "inputs": [
        {
          "internalType": "string",
          "name": "_fullName",
          "type": "string"
        },
        {
          "internalType": "string",
          "name": "_cellPhone",
          "type": "string"
        },
        {
          "internalType": "string",
          "name": "_location",
          "type": "string"
        },
        {
          "internalType": "string",
          "name": "_email",
          "type": "string"
        }
      ],
      "name": "registerPetOwner",
      "outputs": [],
      "stateMutability": "nonpayable",
      "type": "function"
    },
    {
      "inputs": [
        {
          "internalType": "string",
          "name": "_name",
          "type": "string"
        },
        {
          "internalType": "uint256",
          "name": "_chipId",
          "type": "uint256"
        },
        {
          "internalType": "string",
          "name": "_appleTag",
          "type": "string"
        },
        {
          "internalType": "string",
          "name": "_qrCode",
          "type": "string"
        },
        {
          "internalType": "string",
          "name": "_animalType",
          "type": "string"
        },
        {
          "internalType": "string",
          "name": "_gender",
          "type": "string"
        },
        {
          "internalType": "string",
          "name": "_breed",
          "type": "string"
        },
        {
          "internalType": "string",
          "name": "_description",
          "type": "string"
        }
      ],
      "name": "registerPets",
      "outputs": [],
      "stateMutability": "nonpayable",
      "type": "function"
    },
    {
      "inputs": [
        {
          "internalType": "address",
          "name": "petOwnerAddress",
          "type": "address"
        }
      ],
      "name": "getMyRegisteredPets",
      "outputs": [
        {
          "internalType": "uint256[]",
          "name": "",
          "type": "uint256[]"
        }
      ],
      "stateMutability": "view",
      "type": "function",
      "constant": true
    }
  ],
  "bytecode": "0x608060405234801561001057600080fd5b50336000806101000a81548173ffffffffffffffffffffffffffffffffffffffff021916908373ffffffffffffffffffffffffffffffffffffffff16021790555061263b806100606000396000f3fe608060405234801561001057600080fd5b506004361061007d5760003560e01c80639d4df7cf1161005b5780639d4df7cf14610110578063ab41990614610149578063ce2091dd14610179578063f5185ced146101955761007d565b80633c939f18146100825780635063e3f8146100bb57806398069937146100f4575b600080fd5b61009c60048036038101906100979190611e36565b6101ce565b6040516100b29a99989796959493929190612295565b60405180910390f35b6100d560048036038101906100d09190612094565b610610565b6040516100eb9a99989796959493929190612295565b60405180910390f35b61010e60048036038101906101099190611f3a565b610a3c565b005b61012a60048036038101906101259190611e36565b6111c3565b6040516101409a99989796959493929190612295565b60405180910390f35b610163600480360381019061015e9190611e0d565b611605565b6040516101709190612204565b60405180910390f35b610193600480360381019061018e9190611e77565b61169f565b005b6101af60048036038101906101aa9190611e0d565b61185f565b6040516101c59a99989796959493929190612295565b60405180910390f35b600681805160208101820180518482526020830160208501208183528095505050505050600091509050806000018054610207906124b6565b80601f0160208091040260200160405190810160405280929190818152602001828054610233906124b6565b80156102805780601f1061025557610100808354040283529160200191610280565b820191906000526020600020905b81548152906001019060200180831161026357829003601f168201915b50505050509080600101549080600201805461029b906124b6565b80601f01602080910402602001604051908101604052809291908181526020018280546102c7906124b6565b80156103145780601f106102e957610100808354040283529160200191610314565b820191906000526020600020905b8154815290600101906020018083116102f757829003601f168201915b505050505090806003018054610329906124b6565b80601f0160208091040260200160405190810160405280929190818152602001828054610355906124b6565b80156103a25780601f10610377576101008083540402835291602001916103a2565b820191906000526020600020905b81548152906001019060200180831161038557829003601f168201915b5050505050908060040180546103b7906124b6565b80601f01602080910402602001604051908101604052809291908181526020018280546103e3906124b6565b80156104305780601f1061040557610100808354040283529160200191610430565b820191906000526020600020905b81548152906001019060200180831161041357829003601f168201915b505050505090806005018054610445906124b6565b80601f0160208091040260200160405190810160405280929190818152602001828054610471906124b6565b80156104be5780601f10610493576101008083540402835291602001916104be565b820191906000526020600020905b8154815290600101906020018083116104a157829003601f168201915b5050505050908060060180546104d3906124b6565b80601f01602080910402602001604051908101604052809291908181526020018280546104ff906124b6565b801561054c5780601f106105215761010080835404028352916020019161054c565b820191906000526020600020905b81548152906001019060200180831161052f57829003601f168201915b505050505090806007018054610561906124b6565b80601f016020809104026020016040519081016040528092919081815260200182805461058d906124b6565b80156105da5780601f106105af576101008083540402835291602001916105da565b820191906000526020600020905b8154815290600101906020018083116105bd57829003601f168201915b5050505050908060080154908060090160009054906101000a900473ffffffffffffffffffffffffffffffffffffffff1690508a565b6005602052806000526040600020600091509050806000018054610633906124b6565b80601f016020809104026020016040519081016040528092919081815260200182805461065f906124b6565b80156106ac5780601f10610681576101008083540402835291602001916106ac565b820191906000526020600020905b81548152906001019060200180831161068f57829003601f168201915b5050505050908060010154908060020180546106c7906124b6565b80601f01602080910402602001604051908101604052809291908181526020018280546106f3906124b6565b80156107405780601f1061071557610100808354040283529160200191610740565b820191906000526020600020905b81548152906001019060200180831161072357829003601f168201915b505050505090806003018054610755906124b6565b80601f0160208091040260200160405190810160405280929190818152602001828054610781906124b6565b80156107ce5780601f106107a3576101008083540402835291602001916107ce565b820191906000526020600020905b8154815290600101906020018083116107b157829003601f168201915b5050505050908060040180546107e3906124b6565b80601f016020809104026020016040519081016040528092919081815260200182805461080f906124b6565b801561085c5780601f106108315761010080835404028352916020019161085c565b820191906000526020600020905b81548152906001019060200180831161083f57829003601f168201915b505050505090806005018054610871906124b6565b80601f016020809104026020016040519081016040528092919081815260200182805461089d906124b6565b80156108ea5780601f106108bf576101008083540402835291602001916108ea565b820191906000526020600020905b8154815290600101906020018083116108cd57829003601f168201915b5050505050908060060180546108ff906124b6565b80601f016020809104026020016040519081016040528092919081815260200182805461092b906124b6565b80156109785780601f1061094d57610100808354040283529160200191610978565b820191906000526020600020905b81548152906001019060200180831161095b57829003601f168201915b50505050509080600701805461098d906124b6565b80601f01602080910402602001604051908101604052809291908181526020018280546109b9906124b6565b8015610a065780601f106109db57610100808354040283529160200191610a06565b820191906000526020600020905b8154815290600101906020018083116109e957829003601f168201915b5050505050908060080154908060090160009054906101000a900473ffffffffffffffffffffffffffffffffffffffff1690508a565b60008054906101000a900473ffffffffffffffffffffffffffffffffffffffff1673ffffffffffffffffffffffffffffffffffffffff163373ffffffffffffffffffffffffffffffffffffffff1614610aca576040517f08c379a0000000000000000000000000000000000000000000000000000000008152600401610ac190612362565b60405180910390fd5b60006040518061014001604052808a81526020018981526020018881526020018781526020018681526020018581526020018481526020018381526020014281526020013373ffffffffffffffffffffffffffffffffffffffff1681525090506001889080600181540180825580915050600190039060005260206000200160009091909190915055600060405180604001604052806001805480602002602001604051908101604052809291908181526020018280548015610bac57602002820191906000526020600020905b815481526020019060010190808311610b98575b505050505081526020013373ffffffffffffffffffffffffffffffffffffffff16815250905081600460003373ffffffffffffffffffffffffffffffffffffffff1673ffffffffffffffffffffffffffffffffffffffff1681526020019081526020016000206000820151816000019080519060200190610c2e929190611c8b565b50602082015181600101556040820151816002019080519060200190610c55929190611c8b565b506060820151816003019080519060200190610c72929190611c8b565b506080820151816004019080519060200190610c8f929190611c8b565b5060a0820151816005019080519060200190610cac929190611c8b565b5060c0820151816006019080519060200190610cc9929190611c8b565b5060e0820151816007019080519060200190610ce6929190611c8b565b5061010082015181600801556101208201518160090160006101000a81548173ffffffffffffffffffffffffffffffffffffffff021916908373ffffffffffffffffffffffffffffffffffffffff16021790555090505081600560008b81526020019081526020016000206000820151816000019080519060200190610d6d929190611c8b565b50602082015181600101556040820151816002019080519060200190610d94929190611c8b565b506060820151816003019080519060200190610db1929190611c8b565b506080820151816004019080519060200190610dce929190611c8b565b5060a0820151816005019080519060200190610deb929190611c8b565b5060c0820151816006019080519060200190610e08929190611c8b565b5060e0820151816007019080519060200190610e25929190611c8b565b5061010082015181600801556101208201518160090160006101000a81548173ffffffffffffffffffffffffffffffffffffffff021916908373ffffffffffffffffffffffffffffffffffffffff16021790555090505081600689604051610e8d91906121ed565b90815260200160405180910390206000820151816000019080519060200190610eb7929190611c8b565b50602082015181600101556040820151816002019080519060200190610ede929190611c8b565b506060820151816003019080519060200190610efb929190611c8b565b506080820151816004019080519060200190610f18929190611c8b565b5060a0820151816005019080519060200190610f35929190611c8b565b5060c0820151816006019080519060200190610f52929190611c8b565b5060e0820151816007019080519060200190610f6f929190611c8b565b5061010082015181600801556101208201518160090160006101000a81548173ffffffffffffffffffffffffffffffffffffffff021916908373ffffffffffffffffffffffffffffffffffffffff16021790555090505081600788604051610fd791906121ed565b90815260200160405180910390206000820151816000019080519060200190611001929190611c8b565b50602082015181600101556040820151816002019080519060200190611028929190611c8b565b506060820151816003019080519060200190611045929190611c8b565b506080820151816004019080519060200190611062929190611c8b565b5060a082015181600501908051906020019061107f929190611c8b565b5060c082015181600601908051906020019061109c929190611c8b565b5060e08201518160070190805190602001906110b9929190611c8b565b5061010082015181600801556101208201518160090160006101000a81548173ffffffffffffffffffffffffffffffffffffffff021916908373ffffffffffffffffffffffffffffffffffffffff16021790555090505080600260003373ffffffffffffffffffffffffffffffffffffffff1673ffffffffffffffffffffffffffffffffffffffff168152602001908152602001600020600082015181600001908051906020019061116c929190611d11565b5060208201518160010160006101000a81548173ffffffffffffffffffffffffffffffffffffffff021916908373ffffffffffffffffffffffffffffffffffffffff16021790555090505050505050505050505050565b6007818051602081018201805184825260208301602085012081835280955050505050506000915090508060000180546111fc906124b6565b80601f0160208091040260200160405190810160405280929190818152602001828054611228906124b6565b80156112755780601f1061124a57610100808354040283529160200191611275565b820191906000526020600020905b81548152906001019060200180831161125857829003601f168201915b505050505090806001015490806002018054611290906124b6565b80601f01602080910402602001604051908101604052809291908181526020018280546112bc906124b6565b80156113095780601f106112de57610100808354040283529160200191611309565b820191906000526020600020905b8154815290600101906020018083116112ec57829003601f168201915b50505050509080600301805461131e906124b6565b80601f016020809104026020016040519081016040528092919081815260200182805461134a906124b6565b80156113975780601f1061136c57610100808354040283529160200191611397565b820191906000526020600020905b81548152906001019060200180831161137a57829003601f168201915b5050505050908060040180546113ac906124b6565b80601f01602080910402602001604051908101604052809291908181526020018280546113d8906124b6565b80156114255780601f106113fa57610100808354040283529160200191611425565b820191906000526020600020905b81548152906001019060200180831161140857829003601f168201915b50505050509080600501805461143a906124b6565b80601f0160208091040260200160405190810160405280929190818152602001828054611466906124b6565b80156114b35780601f10611488576101008083540402835291602001916114b3565b820191906000526020600020905b81548152906001019060200180831161149657829003601f168201915b5050505050908060060180546114c8906124b6565b80601f01602080910402602001604051908101604052809291908181526020018280546114f4906124b6565b80156115415780601f1061151657610100808354040283529160200191611541565b820191906000526020600020905b81548152906001019060200180831161152457829003601f168201915b505050505090806007018054611556906124b6565b80601f0160208091040260200160405190810160405280929190818152602001828054611582906124b6565b80156115cf5780601f106115a4576101008083540402835291602001916115cf565b820191906000526020600020905b8154815290600101906020018083116115b257829003601f168201915b5050505050908060080154908060090160009054906101000a900473ffffffffffffffffffffffffffffffffffffffff1690508a565b6060600260008373ffffffffffffffffffffffffffffffffffffffff1673ffffffffffffffffffffffffffffffffffffffff16815260200190815260200160002060000180548060200260200160405190810160405280929190818152602001828054801561169357602002820191906000526020600020905b81548152602001906001019080831161167f575b50505050509050919050565b60008054906101000a900473ffffffffffffffffffffffffffffffffffffffff1673ffffffffffffffffffffffffffffffffffffffff163373ffffffffffffffffffffffffffffffffffffffff161461172d576040517f08c379a000000000000000000000000000000000000000000000000000000000815260040161172490612362565b60405180910390fd5b60006040518060a0016040528086815260200185815260200184815260200183815260200142815250905080600360003373ffffffffffffffffffffffffffffffffffffffff1673ffffffffffffffffffffffffffffffffffffffff16815260200190815260200160002060008201518160000190805190602001906117b4929190611c8b565b5060208201518160010190805190602001906117d1929190611c8b565b5060408201518160020190805190602001906117ee929190611c8b565b50606082015181600301908051906020019061180b929190611c8b565b50608082015181600401559050507fc041a5bd71d08009783cc8d3794c7bd2b1da118dfa65935d31d12bbe489eecb08585858542604051611850959493929190612226565b60405180910390a15050505050565b6004602052806000526040600020600091509050806000018054611882906124b6565b80601f01602080910402602001604051908101604052809291908181526020018280546118ae906124b6565b80156118fb5780601f106118d0576101008083540402835291602001916118fb565b820191906000526020600020905b8154815290600101906020018083116118de57829003601f168201915b505050505090806001015490806002018054611916906124b6565b80601f0160208091040260200160405190810160405280929190818152602001828054611942906124b6565b801561198f5780601f106119645761010080835404028352916020019161198f565b820191906000526020600020905b81548152906001019060200180831161197257829003601f168201915b5050505050908060030180546119a4906124b6565b80601f01602080910402602001604051908101604052809291908181526020018280546119d0906124b6565b8015611a1d5780601f106119f257610100808354040283529160200191611a1d565b820191906000526020600020905b815481529060010190602001808311611a0057829003601f168201915b505050505090806004018054611a32906124b6565b80601f0160208091040260200160405190810160405280929190818152602001828054611a5e906124b6565b8015611aab5780601f10611a8057610100808354040283529160200191611aab565b820191906000526020600020905b815481529060010190602001808311611a8e57829003601f168201915b505050505090806005018054611ac0906124b6565b80601f0160208091040260200160405190810160405280929190818152602001828054611aec906124b6565b8015611b395780601f10611b0e57610100808354040283529160200191611b39565b820191906000526020600020905b815481529060010190602001808311611b1c57829003601f168201915b505050505090806006018054611b4e906124b6565b80601f0160208091040260200160405190810160405280929190818152602001828054611b7a906124b6565b8015611bc75780601f10611b9c57610100808354040283529160200191611bc7565b820191906000526020600020905b815481529060010190602001808311611baa57829003601f168201915b505050505090806007018054611bdc906124b6565b80601f0160208091040260200160405190810160405280929190818152602001828054611c08906124b6565b8015611c555780601f10611c2a57610100808354040283529160200191611c55565b820191906000526020600020905b815481529060010190602001808311611c3857829003601f168201915b5050505050908060080154908060090160009054906101000a900473ffffffffffffffffffffffffffffffffffffffff1690508a565b828054611c97906124b6565b90600052602060002090601f016020900481019282611cb95760008555611d00565b82601f10611cd257805160ff1916838001178555611d00565b82800160010185558215611d00579182015b82811115611cff578251825591602001919060010190611ce4565b5b509050611d0d9190611d5e565b5090565b828054828255906000526020600020908101928215611d4d579160200282015b82811115611d4c578251825591602001919060010190611d31565b5b509050611d5a9190611d5e565b5090565b5b80821115611d77576000816000905550600101611d5f565b5090565b6000611d8e611d89846123a7565b612382565b905082815260208101848484011115611da657600080fd5b611db1848285612474565b509392505050565b600081359050611dc8816125d7565b92915050565b600082601f830112611ddf57600080fd5b8135611def848260208601611d7b565b91505092915050565b600081359050611e07816125ee565b92915050565b600060208284031215611e1f57600080fd5b6000611e2d84828501611db9565b91505092915050565b600060208284031215611e4857600080fd5b600082013567ffffffffffffffff811115611e6257600080fd5b611e6e84828501611dce565b91505092915050565b60008060008060808587031215611e8d57600080fd5b600085013567ffffffffffffffff811115611ea757600080fd5b611eb387828801611dce565b945050602085013567ffffffffffffffff811115611ed057600080fd5b611edc87828801611dce565b935050604085013567ffffffffffffffff811115611ef957600080fd5b611f0587828801611dce565b925050606085013567ffffffffffffffff811115611f2257600080fd5b611f2e87828801611dce565b91505092959194509250565b600080600080600080600080610100898b031215611f5757600080fd5b600089013567ffffffffffffffff811115611f7157600080fd5b611f7d8b828c01611dce565b9850506020611f8e8b828c01611df8565b975050604089013567ffffffffffffffff811115611fab57600080fd5b611fb78b828c01611dce565b965050606089013567ffffffffffffffff811115611fd457600080fd5b611fe08b828c01611dce565b955050608089013567ffffffffffffffff811115611ffd57600080fd5b6120098b828c01611dce565b94505060a089013567ffffffffffffffff81111561202657600080fd5b6120328b828c01611dce565b93505060c089013567ffffffffffffffff81111561204f57600080fd5b61205b8b828c01611dce565b92505060e089013567ffffffffffffffff81111561207857600080fd5b6120848b828c01611dce565b9150509295985092959890939650565b6000602082840312156120a657600080fd5b60006120b484828501611df8565b91505092915050565b60006120c983836121cf565b60208301905092915050565b6120de81612438565b82525050565b60006120ef826123e8565b6120f9818561240b565b9350612104836123d8565b8060005b8381101561213557815161211c88826120bd565b9750612127836123fe565b925050600181019050612108565b5085935050505092915050565b600061214d826123f3565b612157818561241c565b9350612167818560208601612483565b61217081612577565b840191505092915050565b6000612186826123f3565b612190818561242d565b93506121a0818560208601612483565b80840191505092915050565b60006121b960258361241c565b91506121c482612588565b604082019050919050565b6121d88161246a565b82525050565b6121e78161246a565b82525050565b60006121f9828461217b565b915081905092915050565b6000602082019050818103600083015261221e81846120e4565b905092915050565b600060a08201905081810360008301526122408188612142565b905081810360208301526122548187612142565b905081810360408301526122688186612142565b9050818103606083015261227c8185612142565b905061228b60808301846121de565b9695505050505050565b60006101408201905081810360008301526122b0818d612142565b90506122bf602083018c6121de565b81810360408301526122d1818b612142565b905081810360608301526122e5818a612142565b905081810360808301526122f98189612142565b905081810360a083015261230d8188612142565b905081810360c08301526123218187612142565b905081810360e08301526123358186612142565b90506123456101008301856121de565b6123536101208301846120d5565b9b9a5050505050505050505050565b6000602082019050818103600083015261237b816121ac565b9050919050565b600061238c61239d565b905061239882826124e8565b919050565b6000604051905090565b600067ffffffffffffffff8211156123c2576123c1612548565b5b6123cb82612577565b9050602081019050919050565b6000819050602082019050919050565b600081519050919050565b600081519050919050565b6000602082019050919050565b600082825260208201905092915050565b600082825260208201905092915050565b600081905092915050565b60006124438261244a565b9050919050565b600073ffffffffffffffffffffffffffffffffffffffff82169050919050565b6000819050919050565b82818337600083830152505050565b60005b838110156124a1578082015181840152602081019050612486565b838111156124b0576000848401525b50505050565b600060028204905060018216806124ce57607f821691505b602082108114156124e2576124e1612519565b5b50919050565b6124f182612577565b810181811067ffffffffffffffff821117156125105761250f612548565b5b80604052505050565b7f4e487b7100000000000000000000000000000000000000000000000000000000600052602260045260246000fd5b7f4e487b7100000000000000000000000000000000000000000000000000000000600052604160045260246000fd5b6000601f19601f8301169050919050565b7f4f6e6c79206f776e65722063616e20706572666f6d2074686973206f70656e7260008201527f6174696f6e000000000000000000000000000000000000000000000000000000602082015250565b6125e081612438565b81146125eb57600080fd5b50565b6125f78161246a565b811461260257600080fd5b5056fea2646970667358221220fdee45316665b4bde7288d7ec87fad09afd1f965ff9237a7ee13cb1dec6b11c964736f6c63430008040033",
  "immutableReferences": {},
  "source": "// SPDX-License-Identifier: MIT\npragma solidity ^0.8.4.0;\n\n\ncontract FurDetective{\n    address owner;\n    uint[] storeChipIds;\n\n    struct OwnerInfo{\n        string fullName;\n        string cellPhone;\n        string location;\n        string email;\n        uint timeStamp;\n    }\n\n    struct RegisterPet{\n        string name;\n        uint chipId;\n        string appleTag;\n        string qrCode;\n        string animalType;\n        string gender;    \n        string breed;\n        string description;\n        uint timeStamp;\n        address sender;\n        // mapping(address => chipId) petOwner;\n\n    }\n    struct RegisteredPets{\n        uint[] chipId;\n        address petOwner;\n        // mapping(address => chipId) petOwner;\n\n    }\n    // OwnerInfo ownerinfo;\n    // uint[] public myPets;\n    mapping(address => RegisteredPets) private myRegisteredPets;\n    \n\n    // mapping(address => Balance) public balanceReceived;\n    mapping(address => OwnerInfo) private ownerInfoMapping;\n\n    // Track pets with owner address\n    mapping(address => RegisterPet) public registeredPetsMapping;\n\n    // Track pets with Chip Id\n    mapping(uint => RegisterPet) public searchPetByChipId;\n\n    // Track pets with Apple Tag\n    mapping(string => RegisterPet) public searchPetByAppleTag;\n\n    // Track pets with QR Code\n    mapping(string => RegisterPet) public searchPetByQrCode;\n\n   \n\n    // Emit events \n    event OwnerInfoEvent(string fullName, string cellPhone, string Location, string email, uint timeStamp);\n    event RegisterPetEvent(string name, string chipId, string appleTag, string qrCode, string animalType,\n        string gender, string breed, string description, uint timeStamp, address sender);\n\n    \n    constructor(){\n        owner = msg.sender;\n    }\n\n    modifier onlyOwner (){\n        require(msg.sender == owner, \"Only owner can perfom this openration\");\n        _;\n    }\n    function registerPetOwner(string memory _fullName, string memory _cellPhone, string memory _location, string memory _email) public onlyOwner {\n        OwnerInfo memory _ownerInfo = OwnerInfo({fullName: _fullName, cellPhone: _cellPhone, location: _location, email: _email,\n            timeStamp: block.timestamp\n            });\n        ownerInfoMapping[msg.sender] = _ownerInfo;\n        emit OwnerInfoEvent(_fullName, _cellPhone, _location, _email, block.timestamp);\n    }\n\n    function registerPets(string memory _name, uint _chipId, string memory _appleTag, string memory _qrCode,\n                        string memory _animalType, string memory _gender, string memory _breed, string memory _description) public onlyOwner{\n        RegisterPet memory _registerPet = RegisterPet({\n            name: _name, chipId: _chipId, appleTag: _appleTag, qrCode: _qrCode, animalType: _animalType, gender: _gender, \n            breed: _breed, description: _description, timeStamp: block.timestamp, sender: msg.sender \n            });\n        storeChipIds.push(_chipId);\n        RegisteredPets memory registeredPets = RegisteredPets({chipId: storeChipIds, petOwner: msg.sender});\n\n        registeredPetsMapping[msg.sender] = _registerPet;\n        searchPetByChipId[_chipId] = _registerPet;\n        searchPetByAppleTag[_appleTag] = _registerPet;\n        searchPetByQrCode[_qrCode] = _registerPet;\n        myRegisteredPets[msg.sender] = registeredPets;\n\n    \n\n    }\n    function getMyRegisteredPets(address petOwnerAddress) public view returns(uint[] memory) {\n        return myRegisteredPets[petOwnerAddress].chipId;\n    }\n}\n\n\n",
  "sourcePath": "/Users/kenmartey/Documents/dev_things/blockchain/GBC/capstone/furdetective/contracts/FurDetective.sol",
  "compiler": {
    "name": "solc",
    "version": "0.8.4+commit.c7e474f2.Emscripten.clang"
  },
  "schemaVersion": "3.4.8",
  "updatedAt": "2022-08-14T02:38:53.299Z",
  "networkType": "ethereum",
  "devdoc": {
    "kind": "dev",
    "methods": {},
    "version": 1
  },
  "userdoc": {
    "kind": "user",
    "methods": {},
    "version": 1
  }
}