{
  "contractName": "FurDetective",
  "abi": [
    {
      "inputs": [],
      "stateMutability": "nonpayable",
      "type": "constructor"
    },
    {
      "anonymous": false,
      "inputs": [
        {
          "indexed": false,
          "internalType": "string",
          "name": "fullName",
          "type": "string"
        },
        {
          "indexed": false,
          "internalType": "string",
          "name": "cellPhone",
          "type": "string"
        },
        {
          "indexed": false,
          "internalType": "string",
          "name": "Location",
          "type": "string"
        },
        {
          "indexed": false,
          "internalType": "string",
          "name": "email",
          "type": "string"
        },
        {
          "indexed": false,
          "internalType": "uint256",
          "name": "timeStamp",
          "type": "uint256"
        }
      ],
      "name": "OwnerInfoEvent",
      "type": "event"
    },
    {
      "anonymous": false,
      "inputs": [
        {
          "indexed": false,
          "internalType": "string",
          "name": "name",
          "type": "string"
        },
        {
          "indexed": false,
          "internalType": "string",
          "name": "chipId",
          "type": "string"
        },
        {
          "indexed": false,
          "internalType": "string",
          "name": "appleTag",
          "type": "string"
        },
        {
          "indexed": false,
          "internalType": "string",
          "name": "qrCode",
          "type": "string"
        },
        {
          "indexed": false,
          "internalType": "string",
          "name": "animalType",
          "type": "string"
        },
        {
          "indexed": false,
          "internalType": "string",
          "name": "gender",
          "type": "string"
        },
        {
          "indexed": false,
          "internalType": "string",
          "name": "breed",
          "type": "string"
        },
        {
          "indexed": false,
          "internalType": "string",
          "name": "description",
          "type": "string"
        },
        {
          "indexed": false,
          "internalType": "uint256",
          "name": "timeStamp",
          "type": "uint256"
        },
        {
          "indexed": false,
          "internalType": "address",
          "name": "sender",
          "type": "address"
        }
      ],
      "name": "RegisterPetEvent",
      "type": "event"
    },
    {
      "inputs": [
        {
          "internalType": "address",
          "name": "",
          "type": "address"
        }
      ],
      "name": "myRegisteredPets",
      "outputs": [
        {
          "internalType": "address",
          "name": "petOwner",
          "type": "address"
        }
      ],
      "stateMutability": "view",
      "type": "function",
      "constant": true
    },
    {
      "inputs": [
        {
          "internalType": "address",
          "name": "",
          "type": "address"
        }
      ],
      "name": "registeredPetsMapping",
      "outputs": [
        {
          "internalType": "string",
          "name": "name",
          "type": "string"
        },
        {
          "internalType": "uint256",
          "name": "chipId",
          "type": "uint256"
        },
        {
          "internalType": "string",
          "name": "appleTag",
          "type": "string"
        },
        {
          "internalType": "string",
          "name": "qrCode",
          "type": "string"
        },
        {
          "internalType": "string",
          "name": "animalType",
          "type": "string"
        },
        {
          "internalType": "string",
          "name": "gender",
          "type": "string"
        },
        {
          "internalType": "string",
          "name": "breed",
          "type": "string"
        },
        {
          "internalType": "string",
          "name": "description",
          "type": "string"
        },
        {
          "internalType": "uint256",
          "name": "timeStamp",
          "type": "uint256"
        },
        {
          "internalType": "address",
          "name": "sender",
          "type": "address"
        }
      ],
      "stateMutability": "view",
      "type": "function",
      "constant": true
    },
    {
      "inputs": [
        {
          "internalType": "string",
          "name": "",
          "type": "string"
        }
      ],
      "name": "searchPetByAppleTag",
      "outputs": [
        {
          "internalType": "string",
          "name": "name",
          "type": "string"
        },
        {
          "internalType": "uint256",
          "name": "chipId",
          "type": "uint256"
        },
        {
          "internalType": "string",
          "name": "appleTag",
          "type": "string"
        },
        {
          "internalType": "string",
          "name": "qrCode",
          "type": "string"
        },
        {
          "internalType": "string",
          "name": "animalType",
          "type": "string"
        },
        {
          "internalType": "string",
          "name": "gender",
          "type": "string"
        },
        {
          "internalType": "string",
          "name": "breed",
          "type": "string"
        },
        {
          "internalType": "string",
          "name": "description",
          "type": "string"
        },
        {
          "internalType": "uint256",
          "name": "timeStamp",
          "type": "uint256"
        },
        {
          "internalType": "address",
          "name": "sender",
          "type": "address"
        }
      ],
      "stateMutability": "view",
      "type": "function",
      "constant": true
    },
    {
      "inputs": [
        {
          "internalType": "uint256",
          "name": "",
          "type": "uint256"
        }
      ],
      "name": "searchPetByChipId",
      "outputs": [
        {
          "internalType": "string",
          "name": "name",
          "type": "string"
        },
        {
          "internalType": "uint256",
          "name": "chipId",
          "type": "uint256"
        },
        {
          "internalType": "string",
          "name": "appleTag",
          "type": "string"
        },
        {
          "internalType": "string",
          "name": "qrCode",
          "type": "string"
        },
        {
          "internalType": "string",
          "name": "animalType",
          "type": "string"
        },
        {
          "internalType": "string",
          "name": "gender",
          "type": "string"
        },
        {
          "internalType": "string",
          "name": "breed",
          "type": "string"
        },
        {
          "internalType": "string",
          "name": "description",
          "type": "string"
        },
        {
          "internalType": "uint256",
          "name": "timeStamp",
          "type": "uint256"
        },
        {
          "internalType": "address",
          "name": "sender",
          "type": "address"
        }
      ],
      "stateMutability": "view",
      "type": "function",
      "constant": true
    },
    {
      "inputs": [
        {
          "internalType": "string",
          "name": "",
          "type": "string"
        }
      ],
      "name": "searchPetByQrCode",
      "outputs": [
        {
          "internalType": "string",
          "name": "name",
          "type": "string"
        },
        {
          "internalType": "uint256",
          "name": "chipId",
          "type": "uint256"
        },
        {
          "internalType": "string",
          "name": "appleTag",
          "type": "string"
        },
        {
          "internalType": "string",
          "name": "qrCode",
          "type": "string"
        },
        {
          "internalType": "string",
          "name": "animalType",
          "type": "string"
        },
        {
          "internalType": "string",
          "name": "gender",
          "type": "string"
        },
        {
          "internalType": "string",
          "name": "breed",
          "type": "string"
        },
        {
          "internalType": "string",
          "name": "description",
          "type": "string"
        },
        {
          "internalType": "uint256",
          "name": "timeStamp",
          "type": "uint256"
        },
        {
          "internalType": "address",
          "name": "sender",
          "type": "address"
        }
      ],
      "stateMutability": "view",
      "type": "function",
      "constant": true
    },
    {
      "inputs": [
        {
          "internalType": "address",
          "name": "",
          "type": "address"
        },
        {
          "internalType": "uint256",
          "name": "",
          "type": "uint256"
        }
      ],
      "name": "stakedByAdddress",
      "outputs": [
        {
          "internalType": "uint256",
          "name": "",
          "type": "uint256"
        }
      ],
      "stateMutability": "view",
      "type": "function",
      "constant": true
    },
    {
      "inputs": [
        {
          "internalType": "string",
          "name": "_fullName",
          "type": "string"
        },
        {
          "internalType": "string",
          "name": "_cellPhone",
          "type": "string"
        },
        {
          "internalType": "string",
          "name": "_location",
          "type": "string"
        },
        {
          "internalType": "string",
          "name": "_email",
          "type": "string"
        }
      ],
      "name": "registerPetOwner",
      "outputs": [],
      "stateMutability": "nonpayable",
      "type": "function"
    },
    {
      "inputs": [
        {
          "internalType": "string",
          "name": "_name",
          "type": "string"
        },
        {
          "internalType": "uint256",
          "name": "_chipId",
          "type": "uint256"
        },
        {
          "internalType": "string",
          "name": "_appleTag",
          "type": "string"
        },
        {
          "internalType": "string",
          "name": "_qrCode",
          "type": "string"
        },
        {
          "internalType": "string",
          "name": "_animalType",
          "type": "string"
        },
        {
          "internalType": "string",
          "name": "_gender",
          "type": "string"
        },
        {
          "internalType": "string",
          "name": "_breed",
          "type": "string"
        },
        {
          "internalType": "string",
          "name": "_description",
          "type": "string"
        },
        {
          "internalType": "uint256[]",
          "name": "tokenIds",
          "type": "uint256[]"
        }
      ],
      "name": "registerPets",
      "outputs": [],
      "stateMutability": "nonpayable",
      "type": "function"
    }
  ],
  "bytecode": "0x608060405234801561001057600080fd5b50336000806101000a81548173ffffffffffffffffffffffffffffffffffffffff021916908373ffffffffffffffffffffffffffffffffffffffff1602179055506125d5806100606000396000f3fe608060405234801561001057600080fd5b50600436106100885760003560e01c8063c7f32b5f1161005b578063c7f32b5f14610168578063ce2091dd14610184578063d79e129a146101a0578063f5185ced146101d057610088565b80633c939f181461008d5780634afd18b4146100c65780635063e3f8146100f65780639d4df7cf1461012f575b600080fd5b6100a760048036038101906100a29190611e22565b610209565b6040516100bd9a99989796959493929190612221565b60405180910390f35b6100e060048036038101906100db9190611de6565b61064b565b6040516100ed919061230e565b60405180910390f35b610110600480360381019061010b91906120ac565b61067c565b6040516101269a99989796959493929190612221565b60405180910390f35b61014960048036038101906101449190611e22565b610aa8565b60405161015f9a99989796959493929190612221565b60405180910390f35b610182600480360381019061017d9190611f26565b610eea565b005b61019e60048036038101906101999190611e63565b6115c8565b005b6101ba60048036038101906101b59190611dbd565b611788565b6040516101c79190612197565b60405180910390f35b6101ea60048036038101906101e59190611dbd565b6117c6565b6040516102009a99989796959493929190612221565b60405180910390f35b60068180516020810182018051848252602083016020850120818352809550505050505060009150905080600001805461024290612450565b80601f016020809104026020016040519081016040528092919081815260200182805461026e90612450565b80156102bb5780601f10610290576101008083540402835291602001916102bb565b820191906000526020600020905b81548152906001019060200180831161029e57829003601f168201915b5050505050908060010154908060020180546102d690612450565b80601f016020809104026020016040519081016040528092919081815260200182805461030290612450565b801561034f5780601f106103245761010080835404028352916020019161034f565b820191906000526020600020905b81548152906001019060200180831161033257829003601f168201915b50505050509080600301805461036490612450565b80601f016020809104026020016040519081016040528092919081815260200182805461039090612450565b80156103dd5780601f106103b2576101008083540402835291602001916103dd565b820191906000526020600020905b8154815290600101906020018083116103c057829003601f168201915b5050505050908060040180546103f290612450565b80601f016020809104026020016040519081016040528092919081815260200182805461041e90612450565b801561046b5780601f106104405761010080835404028352916020019161046b565b820191906000526020600020905b81548152906001019060200180831161044e57829003601f168201915b50505050509080600501805461048090612450565b80601f01602080910402602001604051908101604052809291908181526020018280546104ac90612450565b80156104f95780601f106104ce576101008083540402835291602001916104f9565b820191906000526020600020905b8154815290600101906020018083116104dc57829003601f168201915b50505050509080600601805461050e90612450565b80601f016020809104026020016040519081016040528092919081815260200182805461053a90612450565b80156105875780601f1061055c57610100808354040283529160200191610587565b820191906000526020600020905b81548152906001019060200180831161056a57829003601f168201915b50505050509080600701805461059c90612450565b80601f01602080910402602001604051908101604052809291908181526020018280546105c890612450565b80156106155780601f106105ea57610100808354040283529160200191610615565b820191906000526020600020905b8154815290600101906020018083116105f857829003601f168201915b5050505050908060080154908060090160009054906101000a900473ffffffffffffffffffffffffffffffffffffffff1690508a565b6002602052816000526040600020818154811061066757600080fd5b90600052602060002001600091509150505481565b600560205280600052604060002060009150905080600001805461069f90612450565b80601f01602080910402602001604051908101604052809291908181526020018280546106cb90612450565b80156107185780601f106106ed57610100808354040283529160200191610718565b820191906000526020600020905b8154815290600101906020018083116106fb57829003601f168201915b50505050509080600101549080600201805461073390612450565b80601f016020809104026020016040519081016040528092919081815260200182805461075f90612450565b80156107ac5780601f10610781576101008083540402835291602001916107ac565b820191906000526020600020905b81548152906001019060200180831161078f57829003601f168201915b5050505050908060030180546107c190612450565b80601f01602080910402602001604051908101604052809291908181526020018280546107ed90612450565b801561083a5780601f1061080f5761010080835404028352916020019161083a565b820191906000526020600020905b81548152906001019060200180831161081d57829003601f168201915b50505050509080600401805461084f90612450565b80601f016020809104026020016040519081016040528092919081815260200182805461087b90612450565b80156108c85780601f1061089d576101008083540402835291602001916108c8565b820191906000526020600020905b8154815290600101906020018083116108ab57829003601f168201915b5050505050908060050180546108dd90612450565b80601f016020809104026020016040519081016040528092919081815260200182805461090990612450565b80156109565780601f1061092b57610100808354040283529160200191610956565b820191906000526020600020905b81548152906001019060200180831161093957829003601f168201915b50505050509080600601805461096b90612450565b80601f016020809104026020016040519081016040528092919081815260200182805461099790612450565b80156109e45780601f106109b9576101008083540402835291602001916109e4565b820191906000526020600020905b8154815290600101906020018083116109c757829003601f168201915b5050505050908060070180546109f990612450565b80601f0160208091040260200160405190810160405280929190818152602001828054610a2590612450565b8015610a725780601f10610a4757610100808354040283529160200191610a72565b820191906000526020600020905b815481529060010190602001808311610a5557829003601f168201915b5050505050908060080154908060090160009054906101000a900473ffffffffffffffffffffffffffffffffffffffff1690508a565b600781805160208101820180518482526020830160208501208183528095505050505050600091509050806000018054610ae190612450565b80601f0160208091040260200160405190810160405280929190818152602001828054610b0d90612450565b8015610b5a5780601f10610b2f57610100808354040283529160200191610b5a565b820191906000526020600020905b815481529060010190602001808311610b3d57829003601f168201915b505050505090806001015490806002018054610b7590612450565b80601f0160208091040260200160405190810160405280929190818152602001828054610ba190612450565b8015610bee5780601f10610bc357610100808354040283529160200191610bee565b820191906000526020600020905b815481529060010190602001808311610bd157829003601f168201915b505050505090806003018054610c0390612450565b80601f0160208091040260200160405190810160405280929190818152602001828054610c2f90612450565b8015610c7c5780601f10610c5157610100808354040283529160200191610c7c565b820191906000526020600020905b815481529060010190602001808311610c5f57829003601f168201915b505050505090806004018054610c9190612450565b80601f0160208091040260200160405190810160405280929190818152602001828054610cbd90612450565b8015610d0a5780601f10610cdf57610100808354040283529160200191610d0a565b820191906000526020600020905b815481529060010190602001808311610ced57829003601f168201915b505050505090806005018054610d1f90612450565b80601f0160208091040260200160405190810160405280929190818152602001828054610d4b90612450565b8015610d985780601f10610d6d57610100808354040283529160200191610d98565b820191906000526020600020905b815481529060010190602001808311610d7b57829003601f168201915b505050505090806006018054610dad90612450565b80601f0160208091040260200160405190810160405280929190818152602001828054610dd990612450565b8015610e265780601f10610dfb57610100808354040283529160200191610e26565b820191906000526020600020905b815481529060010190602001808311610e0957829003601f168201915b505050505090806007018054610e3b90612450565b80601f0160208091040260200160405190810160405280929190818152602001828054610e6790612450565b8015610eb45780601f10610e8957610100808354040283529160200191610eb4565b820191906000526020600020905b815481529060010190602001808311610e9757829003601f168201915b5050505050908060080154908060090160009054906101000a900473ffffffffffffffffffffffffffffffffffffffff1690508a565b60008054906101000a900473ffffffffffffffffffffffffffffffffffffffff1673ffffffffffffffffffffffffffffffffffffffff163373ffffffffffffffffffffffffffffffffffffffff1614610f78576040517f08c379a0000000000000000000000000000000000000000000000000000000008152600401610f6f906122ee565b60405180910390fd5b60006040518061014001604052808b81526020018a81526020018981526020018881526020018781526020018681526020018581526020018481526020014281526020013373ffffffffffffffffffffffffffffffffffffffff16815250905080600460003373ffffffffffffffffffffffffffffffffffffffff1673ffffffffffffffffffffffffffffffffffffffff1681526020019081526020016000206000820151816000019080519060200190611034929190611bf2565b5060208201518160010155604082015181600201908051906020019061105b929190611bf2565b506060820151816003019080519060200190611078929190611bf2565b506080820151816004019080519060200190611095929190611bf2565b5060a08201518160050190805190602001906110b2929190611bf2565b5060c08201518160060190805190602001906110cf929190611bf2565b5060e08201518160070190805190602001906110ec929190611bf2565b5061010082015181600801556101208201518160090160006101000a81548173ffffffffffffffffffffffffffffffffffffffff021916908373ffffffffffffffffffffffffffffffffffffffff16021790555090505080600560008b81526020019081526020016000206000820151816000019080519060200190611173929190611bf2565b5060208201518160010155604082015181600201908051906020019061119a929190611bf2565b5060608201518160030190805190602001906111b7929190611bf2565b5060808201518160040190805190602001906111d4929190611bf2565b5060a08201518160050190805190602001906111f1929190611bf2565b5060c082015181600601908051906020019061120e929190611bf2565b5060e082015181600701908051906020019061122b929190611bf2565b5061010082015181600801556101208201518160090160006101000a81548173ffffffffffffffffffffffffffffffffffffffff021916908373ffffffffffffffffffffffffffffffffffffffff160217905550905050806006896040516112939190612180565b908152602001604051809103902060008201518160000190805190602001906112bd929190611bf2565b506020820151816001015560408201518160020190805190602001906112e4929190611bf2565b506060820151816003019080519060200190611301929190611bf2565b50608082015181600401908051906020019061131e929190611bf2565b5060a082015181600501908051906020019061133b929190611bf2565b5060c0820151816006019080519060200190611358929190611bf2565b5060e0820151816007019080519060200190611375929190611bf2565b5061010082015181600801556101208201518160090160006101000a81548173ffffffffffffffffffffffffffffffffffffffff021916908373ffffffffffffffffffffffffffffffffffffffff160217905550905050806007886040516113dd9190612180565b90815260200160405180910390206000820151816000019080519060200190611407929190611bf2565b5060208201518160010155604082015181600201908051906020019061142e929190611bf2565b50606082015181600301908051906020019061144b929190611bf2565b506080820151816004019080519060200190611468929190611bf2565b5060a0820151816005019080519060200190611485929190611bf2565b5060c08201518160060190805190602001906114a2929190611bf2565b5060e08201518160070190805190602001906114bf929190611bf2565b5061010082015181600801556101208201518160090160006101000a81548173ffffffffffffffffffffffffffffffffffffffff021916908373ffffffffffffffffffffffffffffffffffffffff160217905550905050600260003373ffffffffffffffffffffffffffffffffffffffff1673ffffffffffffffffffffffffffffffffffffffff168152602001908152602001600020828a8151811061158e577f4e487b7100000000000000000000000000000000000000000000000000000000600052603260045260246000fd5b6020026020010151908060018154018082558091505060019003906000526020600020016000909190919091505550505050505050505050565b60008054906101000a900473ffffffffffffffffffffffffffffffffffffffff1673ffffffffffffffffffffffffffffffffffffffff163373ffffffffffffffffffffffffffffffffffffffff1614611656576040517f08c379a000000000000000000000000000000000000000000000000000000000815260040161164d906122ee565b60405180910390fd5b60006040518060a0016040528086815260200185815260200184815260200183815260200142815250905080600360003373ffffffffffffffffffffffffffffffffffffffff1673ffffffffffffffffffffffffffffffffffffffff16815260200190815260200160002060008201518160000190805190602001906116dd929190611bf2565b5060208201518160010190805190602001906116fa929190611bf2565b506040820151816002019080519060200190611717929190611bf2565b506060820151816003019080519060200190611734929190611bf2565b50608082015181600401559050507fc041a5bd71d08009783cc8d3794c7bd2b1da118dfa65935d31d12bbe489eecb085858585426040516117799594939291906121b2565b60405180910390a15050505050565b60016020528060005260406000206000915090508060010160009054906101000a900473ffffffffffffffffffffffffffffffffffffffff16905081565b60046020528060005260406000206000915090508060000180546117e990612450565b80601f016020809104026020016040519081016040528092919081815260200182805461181590612450565b80156118625780601f1061183757610100808354040283529160200191611862565b820191906000526020600020905b81548152906001019060200180831161184557829003601f168201915b50505050509080600101549080600201805461187d90612450565b80601f01602080910402602001604051908101604052809291908181526020018280546118a990612450565b80156118f65780601f106118cb576101008083540402835291602001916118f6565b820191906000526020600020905b8154815290600101906020018083116118d957829003601f168201915b50505050509080600301805461190b90612450565b80601f016020809104026020016040519081016040528092919081815260200182805461193790612450565b80156119845780601f1061195957610100808354040283529160200191611984565b820191906000526020600020905b81548152906001019060200180831161196757829003601f168201915b50505050509080600401805461199990612450565b80601f01602080910402602001604051908101604052809291908181526020018280546119c590612450565b8015611a125780601f106119e757610100808354040283529160200191611a12565b820191906000526020600020905b8154815290600101906020018083116119f557829003601f168201915b505050505090806005018054611a2790612450565b80601f0160208091040260200160405190810160405280929190818152602001828054611a5390612450565b8015611aa05780601f10611a7557610100808354040283529160200191611aa0565b820191906000526020600020905b815481529060010190602001808311611a8357829003601f168201915b505050505090806006018054611ab590612450565b80601f0160208091040260200160405190810160405280929190818152602001828054611ae190612450565b8015611b2e5780601f10611b0357610100808354040283529160200191611b2e565b820191906000526020600020905b815481529060010190602001808311611b1157829003601f168201915b505050505090806007018054611b4390612450565b80601f0160208091040260200160405190810160405280929190818152602001828054611b6f90612450565b8015611bbc5780601f10611b9157610100808354040283529160200191611bbc565b820191906000526020600020905b815481529060010190602001808311611b9f57829003601f168201915b5050505050908060080154908060090160009054906101000a900473ffffffffffffffffffffffffffffffffffffffff1690508a565b828054611bfe90612450565b90600052602060002090601f016020900481019282611c205760008555611c67565b82601f10611c3957805160ff1916838001178555611c67565b82800160010185558215611c67579182015b82811115611c66578251825591602001919060010190611c4b565b5b509050611c749190611c78565b5090565b5b80821115611c91576000816000905550600101611c79565b5090565b6000611ca8611ca38461234e565b612329565b90508083825260208201905082856020860282011115611cc757600080fd5b60005b85811015611cf75781611cdd8882611da8565b845260208401935060208301925050600181019050611cca565b5050509392505050565b6000611d14611d0f8461237a565b612329565b905082815260208101848484011115611d2c57600080fd5b611d3784828561240e565b509392505050565b600081359050611d4e81612571565b92915050565b600082601f830112611d6557600080fd5b8135611d75848260208601611c95565b91505092915050565b600082601f830112611d8f57600080fd5b8135611d9f848260208601611d01565b91505092915050565b600081359050611db781612588565b92915050565b600060208284031215611dcf57600080fd5b6000611ddd84828501611d3f565b91505092915050565b60008060408385031215611df957600080fd5b6000611e0785828601611d3f565b9250506020611e1885828601611da8565b9150509250929050565b600060208284031215611e3457600080fd5b600082013567ffffffffffffffff811115611e4e57600080fd5b611e5a84828501611d7e565b91505092915050565b60008060008060808587031215611e7957600080fd5b600085013567ffffffffffffffff811115611e9357600080fd5b611e9f87828801611d7e565b945050602085013567ffffffffffffffff811115611ebc57600080fd5b611ec887828801611d7e565b935050604085013567ffffffffffffffff811115611ee557600080fd5b611ef187828801611d7e565b925050606085013567ffffffffffffffff811115611f0e57600080fd5b611f1a87828801611d7e565b91505092959194509250565b60008060008060008060008060006101208a8c031215611f4557600080fd5b60008a013567ffffffffffffffff811115611f5f57600080fd5b611f6b8c828d01611d7e565b9950506020611f7c8c828d01611da8565b98505060408a013567ffffffffffffffff811115611f9957600080fd5b611fa58c828d01611d7e565b97505060608a013567ffffffffffffffff811115611fc257600080fd5b611fce8c828d01611d7e565b96505060808a013567ffffffffffffffff811115611feb57600080fd5b611ff78c828d01611d7e565b95505060a08a013567ffffffffffffffff81111561201457600080fd5b6120208c828d01611d7e565b94505060c08a013567ffffffffffffffff81111561203d57600080fd5b6120498c828d01611d7e565b93505060e08a013567ffffffffffffffff81111561206657600080fd5b6120728c828d01611d7e565b9250506101008a013567ffffffffffffffff81111561209057600080fd5b61209c8c828d01611d54565b9150509295985092959850929598565b6000602082840312156120be57600080fd5b60006120cc84828501611da8565b91505092915050565b6120de816123d2565b82525050565b60006120ef826123ab565b6120f981856123b6565b935061210981856020860161241d565b61211281612511565b840191505092915050565b6000612128826123ab565b61213281856123c7565b935061214281856020860161241d565b80840191505092915050565b600061215b6025836123b6565b915061216682612522565b604082019050919050565b61217a81612404565b82525050565b600061218c828461211d565b915081905092915050565b60006020820190506121ac60008301846120d5565b92915050565b600060a08201905081810360008301526121cc81886120e4565b905081810360208301526121e081876120e4565b905081810360408301526121f481866120e4565b9050818103606083015261220881856120e4565b90506122176080830184612171565b9695505050505050565b600061014082019050818103600083015261223c818d6120e4565b905061224b602083018c612171565b818103604083015261225d818b6120e4565b90508181036060830152612271818a6120e4565b9050818103608083015261228581896120e4565b905081810360a083015261229981886120e4565b905081810360c08301526122ad81876120e4565b905081810360e08301526122c181866120e4565b90506122d1610100830185612171565b6122df6101208301846120d5565b9b9a5050505050505050505050565b600060208201905081810360008301526123078161214e565b9050919050565b60006020820190506123236000830184612171565b92915050565b6000612333612344565b905061233f8282612482565b919050565b6000604051905090565b600067ffffffffffffffff821115612369576123686124e2565b5b602082029050602081019050919050565b600067ffffffffffffffff821115612395576123946124e2565b5b61239e82612511565b9050602081019050919050565b600081519050919050565b600082825260208201905092915050565b600081905092915050565b60006123dd826123e4565b9050919050565b600073ffffffffffffffffffffffffffffffffffffffff82169050919050565b6000819050919050565b82818337600083830152505050565b60005b8381101561243b578082015181840152602081019050612420565b8381111561244a576000848401525b50505050565b6000600282049050600182168061246857607f821691505b6020821081141561247c5761247b6124b3565b5b50919050565b61248b82612511565b810181811067ffffffffffffffff821117156124aa576124a96124e2565b5b80604052505050565b7f4e487b7100000000000000000000000000000000000000000000000000000000600052602260045260246000fd5b7f4e487b7100000000000000000000000000000000000000000000000000000000600052604160045260246000fd5b6000601f19601f8301169050919050565b7f4f6e6c79206f776e65722063616e20706572666f6d2074686973206f70656e7260008201527f6174696f6e000000000000000000000000000000000000000000000000000000602082015250565b61257a816123d2565b811461258557600080fd5b50565b61259181612404565b811461259c57600080fd5b5056fea26469706673582212203b3e59cc5b66395ded7229e28e4fd024e2fdade7d1d8078a3737f97aefed9d0664736f6c63430008040033",
  "immutableReferences": {},
  "source": "// SPDX-License-Identifier: MIT\npragma solidity ^0.8.4.0;\n\n\ncontract FurDetective{\n    address owner;\n\n    struct OwnerInfo{\n        string fullName;\n        string cellPhone;\n        string location;\n        string email;\n        uint timeStamp;\n    }\n\n    struct RegisterPet{\n        string name;\n        uint chipId;\n        string appleTag;\n        string qrCode;\n        string animalType;\n        string gender;    \n        string breed;\n        string description;\n        uint timeStamp;\n        address sender;\n        // mapping(address => chipId) petOwner;\n\n    }\n    struct RegisteredPets{\n        uint[] chipId;\n        address petOwner;\n        // mapping(address => chipId) petOwner;\n\n    }\n    // OwnerInfo ownerinfo;\n    // uint[] public myPets;\n    mapping(address => RegisteredPets) public myRegisteredPets;\n    \n    mapping(address => uint256[]) public stakedByAdddress;\n\n    // mapping(address => Balance) public balanceReceived;\n    mapping(address => OwnerInfo) private ownerInfoMapping;\n\n    // Track pets with owner address\n    mapping(address => RegisterPet) public registeredPetsMapping;\n\n    // Track pets with Chip Id\n    mapping(uint => RegisterPet) public searchPetByChipId;\n\n    // Track pets with Apple Tag\n    mapping(string => RegisterPet) public searchPetByAppleTag;\n\n    // Track pets with QR Code\n    mapping(string => RegisterPet) public searchPetByQrCode;\n\n   \n\n    // Emit events \n    event OwnerInfoEvent(string fullName, string cellPhone, string Location, string email, uint timeStamp);\n    event RegisterPetEvent(string name, string chipId, string appleTag, string qrCode, string animalType,\n        string gender, string breed, string description, uint timeStamp, address sender);\n\n    \n    constructor(){\n        owner = msg.sender;\n    }\n\n    modifier onlyOwner (){\n        require(msg.sender == owner, \"Only owner can perfom this openration\");\n        _;\n    }\n    function registerPetOwner(string memory _fullName, string memory _cellPhone, string memory _location, string memory _email) public onlyOwner {\n        OwnerInfo memory _ownerInfo = OwnerInfo({fullName: _fullName, cellPhone: _cellPhone, location: _location, email: _email,\n            timeStamp: block.timestamp\n            });\n        ownerInfoMapping[msg.sender] = _ownerInfo;\n        emit OwnerInfoEvent(_fullName, _cellPhone, _location, _email, block.timestamp);\n    }\n\n    function registerPets(string memory _name, uint _chipId, string memory _appleTag, string memory _qrCode,\n                        string memory _animalType, string memory _gender, string memory _breed, string memory _description, uint256[] memory tokenIds) public onlyOwner{\n        RegisterPet memory _registerPet = RegisterPet({\n            name: _name, chipId: _chipId, appleTag: _appleTag, qrCode: _qrCode, animalType: _animalType, gender: _gender, \n            breed: _breed, description: _description, timeStamp: block.timestamp, sender: msg.sender \n            });\n        registeredPetsMapping[msg.sender] = _registerPet;\n        searchPetByChipId[_chipId] = _registerPet;\n        searchPetByAppleTag[_appleTag] = _registerPet;\n        searchPetByQrCode[_qrCode] = _registerPet;\n        stakedByAdddress[msg.sender].push(tokenIds[_chipId]);\n        // myPets[msg.sender].push(_chipId);\n\n    }\n\n}\n\n",
  "sourcePath": "/Users/kenmartey/Documents/dev_things/blockchain/GBC/capstone/furdetective/contracts/FurDetective.sol",
  "compiler": {
    "name": "solc",
    "version": "0.8.4+commit.c7e474f2.Emscripten.clang"
  },
  "schemaVersion": "3.4.8",
  "updatedAt": "2022-08-10T04:40:09.316Z",
  "networkType": "ethereum",
  "devdoc": {
    "kind": "dev",
    "methods": {},
    "version": 1
  },
  "userdoc": {
    "kind": "user",
    "methods": {},
    "version": 1
  }
}