{
  "contractName": "FurDetective",
  "abi": [
    {
      "inputs": [],
      "stateMutability": "nonpayable",
      "type": "constructor"
    },
    {
      "anonymous": false,
      "inputs": [
        {
          "indexed": false,
          "internalType": "string",
          "name": "fullName",
          "type": "string"
        },
        {
          "indexed": false,
          "internalType": "string",
          "name": "cellPhone",
          "type": "string"
        },
        {
          "indexed": false,
          "internalType": "string",
          "name": "Location",
          "type": "string"
        },
        {
          "indexed": false,
          "internalType": "string",
          "name": "email",
          "type": "string"
        },
        {
          "indexed": false,
          "internalType": "uint256",
          "name": "timeStamp",
          "type": "uint256"
        }
      ],
      "name": "OwnerInfoEvent",
      "type": "event"
    },
    {
      "anonymous": false,
      "inputs": [
        {
          "indexed": false,
          "internalType": "string",
          "name": "name",
          "type": "string"
        },
        {
          "indexed": false,
          "internalType": "string",
          "name": "chipId",
          "type": "string"
        },
        {
          "indexed": false,
          "internalType": "string",
          "name": "appleTag",
          "type": "string"
        },
        {
          "indexed": false,
          "internalType": "string",
          "name": "qrCode",
          "type": "string"
        },
        {
          "indexed": false,
          "internalType": "string",
          "name": "animalType",
          "type": "string"
        },
        {
          "indexed": false,
          "internalType": "string",
          "name": "gender",
          "type": "string"
        },
        {
          "indexed": false,
          "internalType": "string",
          "name": "breed",
          "type": "string"
        },
        {
          "indexed": false,
          "internalType": "string",
          "name": "description",
          "type": "string"
        },
        {
          "indexed": false,
          "internalType": "uint256",
          "name": "timeStamp",
          "type": "uint256"
        },
        {
          "indexed": false,
          "internalType": "address",
          "name": "sender",
          "type": "address"
        }
      ],
      "name": "RegisterPetEvent",
      "type": "event"
    },
    {
      "inputs": [
        {
          "internalType": "address",
          "name": "",
          "type": "address"
        }
      ],
      "name": "registeredPetsMapping",
      "outputs": [
        {
          "internalType": "string",
          "name": "name",
          "type": "string"
        },
        {
          "internalType": "uint256",
          "name": "chipId",
          "type": "uint256"
        },
        {
          "internalType": "string",
          "name": "appleTag",
          "type": "string"
        },
        {
          "internalType": "string",
          "name": "qrCode",
          "type": "string"
        },
        {
          "internalType": "string",
          "name": "animalType",
          "type": "string"
        },
        {
          "internalType": "string",
          "name": "gender",
          "type": "string"
        },
        {
          "internalType": "string",
          "name": "breed",
          "type": "string"
        },
        {
          "internalType": "string",
          "name": "description",
          "type": "string"
        },
        {
          "internalType": "uint256",
          "name": "timeStamp",
          "type": "uint256"
        },
        {
          "internalType": "address",
          "name": "sender",
          "type": "address"
        }
      ],
      "stateMutability": "view",
      "type": "function",
      "constant": true
    },
    {
      "inputs": [
        {
          "internalType": "string",
          "name": "",
          "type": "string"
        }
      ],
      "name": "searchPetByAppleTag",
      "outputs": [
        {
          "internalType": "string",
          "name": "name",
          "type": "string"
        },
        {
          "internalType": "uint256",
          "name": "chipId",
          "type": "uint256"
        },
        {
          "internalType": "string",
          "name": "appleTag",
          "type": "string"
        },
        {
          "internalType": "string",
          "name": "qrCode",
          "type": "string"
        },
        {
          "internalType": "string",
          "name": "animalType",
          "type": "string"
        },
        {
          "internalType": "string",
          "name": "gender",
          "type": "string"
        },
        {
          "internalType": "string",
          "name": "breed",
          "type": "string"
        },
        {
          "internalType": "string",
          "name": "description",
          "type": "string"
        },
        {
          "internalType": "uint256",
          "name": "timeStamp",
          "type": "uint256"
        },
        {
          "internalType": "address",
          "name": "sender",
          "type": "address"
        }
      ],
      "stateMutability": "view",
      "type": "function",
      "constant": true
    },
    {
      "inputs": [
        {
          "internalType": "uint256",
          "name": "",
          "type": "uint256"
        }
      ],
      "name": "searchPetByChipId",
      "outputs": [
        {
          "internalType": "string",
          "name": "name",
          "type": "string"
        },
        {
          "internalType": "uint256",
          "name": "chipId",
          "type": "uint256"
        },
        {
          "internalType": "string",
          "name": "appleTag",
          "type": "string"
        },
        {
          "internalType": "string",
          "name": "qrCode",
          "type": "string"
        },
        {
          "internalType": "string",
          "name": "animalType",
          "type": "string"
        },
        {
          "internalType": "string",
          "name": "gender",
          "type": "string"
        },
        {
          "internalType": "string",
          "name": "breed",
          "type": "string"
        },
        {
          "internalType": "string",
          "name": "description",
          "type": "string"
        },
        {
          "internalType": "uint256",
          "name": "timeStamp",
          "type": "uint256"
        },
        {
          "internalType": "address",
          "name": "sender",
          "type": "address"
        }
      ],
      "stateMutability": "view",
      "type": "function",
      "constant": true
    },
    {
      "inputs": [
        {
          "internalType": "string",
          "name": "",
          "type": "string"
        }
      ],
      "name": "searchPetByQrCode",
      "outputs": [
        {
          "internalType": "string",
          "name": "name",
          "type": "string"
        },
        {
          "internalType": "uint256",
          "name": "chipId",
          "type": "uint256"
        },
        {
          "internalType": "string",
          "name": "appleTag",
          "type": "string"
        },
        {
          "internalType": "string",
          "name": "qrCode",
          "type": "string"
        },
        {
          "internalType": "string",
          "name": "animalType",
          "type": "string"
        },
        {
          "internalType": "string",
          "name": "gender",
          "type": "string"
        },
        {
          "internalType": "string",
          "name": "breed",
          "type": "string"
        },
        {
          "internalType": "string",
          "name": "description",
          "type": "string"
        },
        {
          "internalType": "uint256",
          "name": "timeStamp",
          "type": "uint256"
        },
        {
          "internalType": "address",
          "name": "sender",
          "type": "address"
        }
      ],
      "stateMutability": "view",
      "type": "function",
      "constant": true
    },
    {
      "inputs": [
        {
          "internalType": "string",
          "name": "_fullName",
          "type": "string"
        },
        {
          "internalType": "string",
          "name": "_cellPhone",
          "type": "string"
        },
        {
          "internalType": "string",
          "name": "_location",
          "type": "string"
        },
        {
          "internalType": "string",
          "name": "_email",
          "type": "string"
        }
      ],
      "name": "registerPetOwner",
      "outputs": [],
      "stateMutability": "nonpayable",
      "type": "function"
    },
    {
      "inputs": [
        {
          "internalType": "string",
          "name": "_name",
          "type": "string"
        },
        {
          "internalType": "uint256",
          "name": "_chipId",
          "type": "uint256"
        },
        {
          "internalType": "string",
          "name": "_appleTag",
          "type": "string"
        },
        {
          "internalType": "string",
          "name": "_qrCode",
          "type": "string"
        },
        {
          "internalType": "string",
          "name": "_animalType",
          "type": "string"
        },
        {
          "internalType": "string",
          "name": "_gender",
          "type": "string"
        },
        {
          "internalType": "string",
          "name": "_breed",
          "type": "string"
        },
        {
          "internalType": "string",
          "name": "_description",
          "type": "string"
        }
      ],
      "name": "registerPets",
      "outputs": [],
      "stateMutability": "nonpayable",
      "type": "function"
    },
    {
      "inputs": [
        {
          "internalType": "address",
          "name": "petOwnerAddress",
          "type": "address"
        }
      ],
      "name": "getMyRegisteredPets",
      "outputs": [
        {
          "internalType": "uint256[]",
          "name": "",
          "type": "uint256[]"
        }
      ],
      "stateMutability": "view",
      "type": "function",
      "constant": true
    },
    {
      "inputs": [
        {
          "internalType": "string",
          "name": "_qrCode",
          "type": "string"
        }
      ],
      "name": "getPetByQRCode",
      "outputs": [
        {
          "internalType": "string",
          "name": "name",
          "type": "string"
        },
        {
          "internalType": "string",
          "name": "gender",
          "type": "string"
        },
        {
          "internalType": "string",
          "name": "breed",
          "type": "string"
        },
        {
          "internalType": "address",
          "name": "sender",
          "type": "address"
        },
        {
          "internalType": "string",
          "name": "fullName",
          "type": "string"
        },
        {
          "internalType": "string",
          "name": "cellPhone",
          "type": "string"
        },
        {
          "internalType": "string",
          "name": "location",
          "type": "string"
        },
        {
          "internalType": "string",
          "name": "email",
          "type": "string"
        }
      ],
      "stateMutability": "view",
      "type": "function",
      "constant": true
    }
  ],
  "bytecode": "0x608060405234801561001057600080fd5b50336000806101000a81548173ffffffffffffffffffffffffffffffffffffffff021916908373ffffffffffffffffffffffffffffffffffffffff160217905550612cf0806100606000396000f3fe608060405234801561001057600080fd5b50600436106100885760003560e01c8063ab4199061161005b578063ab41990614610154578063c6796cba14610184578063ce2091dd146101bb578063f5185ced146101d757610088565b80633c939f181461008d5780635063e3f8146100c657806398069937146100ff5780639d4df7cf1461011b575b600080fd5b6100a760048036038101906100a2919061243c565b610210565b6040516100bd9a9998979695949392919061294a565b60405180910390f35b6100e060048036038101906100db919061269a565b610652565b6040516100f69a9998979695949392919061294a565b60405180910390f35b61011960048036038101906101149190612540565b610a7e565b005b6101356004803603810190610130919061243c565b611205565b60405161014b9a9998979695949392919061294a565b60405180910390f35b61016e60048036038101906101699190612413565b611647565b60405161017b919061280a565b60405180910390f35b61019e6004803603810190610199919061243c565b6116e1565b6040516101b298979695949392919061282c565b60405180910390f35b6101d560048036038101906101d0919061247d565b611ca5565b005b6101f160048036038101906101ec9190612413565b611e65565b6040516102079a9998979695949392919061294a565b60405180910390f35b60068180516020810182018051848252602083016020850120818352809550505050505060009150905080600001805461024990612b6b565b80601f016020809104026020016040519081016040528092919081815260200182805461027590612b6b565b80156102c25780601f10610297576101008083540402835291602001916102c2565b820191906000526020600020905b8154815290600101906020018083116102a557829003601f168201915b5050505050908060010154908060020180546102dd90612b6b565b80601f016020809104026020016040519081016040528092919081815260200182805461030990612b6b565b80156103565780601f1061032b57610100808354040283529160200191610356565b820191906000526020600020905b81548152906001019060200180831161033957829003601f168201915b50505050509080600301805461036b90612b6b565b80601f016020809104026020016040519081016040528092919081815260200182805461039790612b6b565b80156103e45780601f106103b9576101008083540402835291602001916103e4565b820191906000526020600020905b8154815290600101906020018083116103c757829003601f168201915b5050505050908060040180546103f990612b6b565b80601f016020809104026020016040519081016040528092919081815260200182805461042590612b6b565b80156104725780601f1061044757610100808354040283529160200191610472565b820191906000526020600020905b81548152906001019060200180831161045557829003601f168201915b50505050509080600501805461048790612b6b565b80601f01602080910402602001604051908101604052809291908181526020018280546104b390612b6b565b80156105005780601f106104d557610100808354040283529160200191610500565b820191906000526020600020905b8154815290600101906020018083116104e357829003601f168201915b50505050509080600601805461051590612b6b565b80601f016020809104026020016040519081016040528092919081815260200182805461054190612b6b565b801561058e5780601f106105635761010080835404028352916020019161058e565b820191906000526020600020905b81548152906001019060200180831161057157829003601f168201915b5050505050908060070180546105a390612b6b565b80601f01602080910402602001604051908101604052809291908181526020018280546105cf90612b6b565b801561061c5780601f106105f15761010080835404028352916020019161061c565b820191906000526020600020905b8154815290600101906020018083116105ff57829003601f168201915b5050505050908060080154908060090160009054906101000a900473ffffffffffffffffffffffffffffffffffffffff1690508a565b600560205280600052604060002060009150905080600001805461067590612b6b565b80601f01602080910402602001604051908101604052809291908181526020018280546106a190612b6b565b80156106ee5780601f106106c3576101008083540402835291602001916106ee565b820191906000526020600020905b8154815290600101906020018083116106d157829003601f168201915b50505050509080600101549080600201805461070990612b6b565b80601f016020809104026020016040519081016040528092919081815260200182805461073590612b6b565b80156107825780601f1061075757610100808354040283529160200191610782565b820191906000526020600020905b81548152906001019060200180831161076557829003601f168201915b50505050509080600301805461079790612b6b565b80601f01602080910402602001604051908101604052809291908181526020018280546107c390612b6b565b80156108105780601f106107e557610100808354040283529160200191610810565b820191906000526020600020905b8154815290600101906020018083116107f357829003601f168201915b50505050509080600401805461082590612b6b565b80601f016020809104026020016040519081016040528092919081815260200182805461085190612b6b565b801561089e5780601f106108735761010080835404028352916020019161089e565b820191906000526020600020905b81548152906001019060200180831161088157829003601f168201915b5050505050908060050180546108b390612b6b565b80601f01602080910402602001604051908101604052809291908181526020018280546108df90612b6b565b801561092c5780601f106109015761010080835404028352916020019161092c565b820191906000526020600020905b81548152906001019060200180831161090f57829003601f168201915b50505050509080600601805461094190612b6b565b80601f016020809104026020016040519081016040528092919081815260200182805461096d90612b6b565b80156109ba5780601f1061098f576101008083540402835291602001916109ba565b820191906000526020600020905b81548152906001019060200180831161099d57829003601f168201915b5050505050908060070180546109cf90612b6b565b80601f01602080910402602001604051908101604052809291908181526020018280546109fb90612b6b565b8015610a485780601f10610a1d57610100808354040283529160200191610a48565b820191906000526020600020905b815481529060010190602001808311610a2b57829003601f168201915b5050505050908060080154908060090160009054906101000a900473ffffffffffffffffffffffffffffffffffffffff1690508a565b60008054906101000a900473ffffffffffffffffffffffffffffffffffffffff1673ffffffffffffffffffffffffffffffffffffffff163373ffffffffffffffffffffffffffffffffffffffff1614610b0c576040517f08c379a0000000000000000000000000000000000000000000000000000000008152600401610b0390612a17565b60405180910390fd5b60006040518061014001604052808a81526020018981526020018881526020018781526020018681526020018581526020018481526020018381526020014281526020013373ffffffffffffffffffffffffffffffffffffffff1681525090506001889080600181540180825580915050600190039060005260206000200160009091909190915055600060405180604001604052806001805480602002602001604051908101604052809291908181526020018280548015610bee57602002820191906000526020600020905b815481526020019060010190808311610bda575b505050505081526020013373ffffffffffffffffffffffffffffffffffffffff16815250905081600460003373ffffffffffffffffffffffffffffffffffffffff1673ffffffffffffffffffffffffffffffffffffffff1681526020019081526020016000206000820151816000019080519060200190610c70929190612291565b50602082015181600101556040820151816002019080519060200190610c97929190612291565b506060820151816003019080519060200190610cb4929190612291565b506080820151816004019080519060200190610cd1929190612291565b5060a0820151816005019080519060200190610cee929190612291565b5060c0820151816006019080519060200190610d0b929190612291565b5060e0820151816007019080519060200190610d28929190612291565b5061010082015181600801556101208201518160090160006101000a81548173ffffffffffffffffffffffffffffffffffffffff021916908373ffffffffffffffffffffffffffffffffffffffff16021790555090505081600560008b81526020019081526020016000206000820151816000019080519060200190610daf929190612291565b50602082015181600101556040820151816002019080519060200190610dd6929190612291565b506060820151816003019080519060200190610df3929190612291565b506080820151816004019080519060200190610e10929190612291565b5060a0820151816005019080519060200190610e2d929190612291565b5060c0820151816006019080519060200190610e4a929190612291565b5060e0820151816007019080519060200190610e67929190612291565b5061010082015181600801556101208201518160090160006101000a81548173ffffffffffffffffffffffffffffffffffffffff021916908373ffffffffffffffffffffffffffffffffffffffff16021790555090505081600689604051610ecf91906127f3565b90815260200160405180910390206000820151816000019080519060200190610ef9929190612291565b50602082015181600101556040820151816002019080519060200190610f20929190612291565b506060820151816003019080519060200190610f3d929190612291565b506080820151816004019080519060200190610f5a929190612291565b5060a0820151816005019080519060200190610f77929190612291565b5060c0820151816006019080519060200190610f94929190612291565b5060e0820151816007019080519060200190610fb1929190612291565b5061010082015181600801556101208201518160090160006101000a81548173ffffffffffffffffffffffffffffffffffffffff021916908373ffffffffffffffffffffffffffffffffffffffff1602179055509050508160078860405161101991906127f3565b90815260200160405180910390206000820151816000019080519060200190611043929190612291565b5060208201518160010155604082015181600201908051906020019061106a929190612291565b506060820151816003019080519060200190611087929190612291565b5060808201518160040190805190602001906110a4929190612291565b5060a08201518160050190805190602001906110c1929190612291565b5060c08201518160060190805190602001906110de929190612291565b5060e08201518160070190805190602001906110fb929190612291565b5061010082015181600801556101208201518160090160006101000a81548173ffffffffffffffffffffffffffffffffffffffff021916908373ffffffffffffffffffffffffffffffffffffffff16021790555090505080600260003373ffffffffffffffffffffffffffffffffffffffff1673ffffffffffffffffffffffffffffffffffffffff16815260200190815260200160002060008201518160000190805190602001906111ae929190612317565b5060208201518160010160006101000a81548173ffffffffffffffffffffffffffffffffffffffff021916908373ffffffffffffffffffffffffffffffffffffffff16021790555090505050505050505050505050565b60078180516020810182018051848252602083016020850120818352809550505050505060009150905080600001805461123e90612b6b565b80601f016020809104026020016040519081016040528092919081815260200182805461126a90612b6b565b80156112b75780601f1061128c576101008083540402835291602001916112b7565b820191906000526020600020905b81548152906001019060200180831161129a57829003601f168201915b5050505050908060010154908060020180546112d290612b6b565b80601f01602080910402602001604051908101604052809291908181526020018280546112fe90612b6b565b801561134b5780601f106113205761010080835404028352916020019161134b565b820191906000526020600020905b81548152906001019060200180831161132e57829003601f168201915b50505050509080600301805461136090612b6b565b80601f016020809104026020016040519081016040528092919081815260200182805461138c90612b6b565b80156113d95780601f106113ae576101008083540402835291602001916113d9565b820191906000526020600020905b8154815290600101906020018083116113bc57829003601f168201915b5050505050908060040180546113ee90612b6b565b80601f016020809104026020016040519081016040528092919081815260200182805461141a90612b6b565b80156114675780601f1061143c57610100808354040283529160200191611467565b820191906000526020600020905b81548152906001019060200180831161144a57829003601f168201915b50505050509080600501805461147c90612b6b565b80601f01602080910402602001604051908101604052809291908181526020018280546114a890612b6b565b80156114f55780601f106114ca576101008083540402835291602001916114f5565b820191906000526020600020905b8154815290600101906020018083116114d857829003601f168201915b50505050509080600601805461150a90612b6b565b80601f016020809104026020016040519081016040528092919081815260200182805461153690612b6b565b80156115835780601f1061155857610100808354040283529160200191611583565b820191906000526020600020905b81548152906001019060200180831161156657829003601f168201915b50505050509080600701805461159890612b6b565b80601f01602080910402602001604051908101604052809291908181526020018280546115c490612b6b565b80156116115780601f106115e657610100808354040283529160200191611611565b820191906000526020600020905b8154815290600101906020018083116115f457829003601f168201915b5050505050908060080154908060090160009054906101000a900473ffffffffffffffffffffffffffffffffffffffff1690508a565b6060600260008373ffffffffffffffffffffffffffffffffffffffff1673ffffffffffffffffffffffffffffffffffffffff1681526020019081526020016000206000018054806020026020016040519081016040528092919081815260200182805480156116d557602002820191906000526020600020905b8154815260200190600101908083116116c1575b50505050509050919050565b60608060606000606080606080600060078a60405161170091906127f3565b9081526020016040518091039020600001805461171c90612b6b565b80601f016020809104026020016040519081016040528092919081815260200182805461174890612b6b565b80156117955780601f1061176a57610100808354040283529160200191611795565b820191906000526020600020905b81548152906001019060200180831161177857829003601f168201915b50505050509050600060078b6040516117ae91906127f3565b908152602001604051809103902060060180546117ca90612b6b565b80601f01602080910402602001604051908101604052809291908181526020018280546117f690612b6b565b80156118435780601f1061181857610100808354040283529160200191611843565b820191906000526020600020905b81548152906001019060200180831161182657829003601f168201915b50505050509050600060078c60405161185c91906127f3565b9081526020016040518091039020600501805461187890612b6b565b80601f01602080910402602001604051908101604052809291908181526020018280546118a490612b6b565b80156118f15780601f106118c6576101008083540402835291602001916118f1565b820191906000526020600020905b8154815290600101906020018083116118d457829003601f168201915b50505050509050600060078d60405161190a91906127f3565b908152602001604051809103902060090160009054906101000a900473ffffffffffffffffffffffffffffffffffffffff1690506000600360008373ffffffffffffffffffffffffffffffffffffffff1673ffffffffffffffffffffffffffffffffffffffff168152602001908152602001600020600001805461198d90612b6b565b80601f01602080910402602001604051908101604052809291908181526020018280546119b990612b6b565b8015611a065780601f106119db57610100808354040283529160200191611a06565b820191906000526020600020905b8154815290600101906020018083116119e957829003601f168201915b505050505090506000600360008473ffffffffffffffffffffffffffffffffffffffff1673ffffffffffffffffffffffffffffffffffffffff1681526020019081526020016000206001018054611a5c90612b6b565b80601f0160208091040260200160405190810160405280929190818152602001828054611a8890612b6b565b8015611ad55780601f10611aaa57610100808354040283529160200191611ad5565b820191906000526020600020905b815481529060010190602001808311611ab857829003601f168201915b505050505090506000600360008573ffffffffffffffffffffffffffffffffffffffff1673ffffffffffffffffffffffffffffffffffffffff1681526020019081526020016000206002018054611b2b90612b6b565b80601f0160208091040260200160405190810160405280929190818152602001828054611b5790612b6b565b8015611ba45780601f10611b7957610100808354040283529160200191611ba4565b820191906000526020600020905b815481529060010190602001808311611b8757829003601f168201915b505050505090506000600360008673ffffffffffffffffffffffffffffffffffffffff1673ffffffffffffffffffffffffffffffffffffffff1681526020019081526020016000206003018054611bfa90612b6b565b80601f0160208091040260200160405190810160405280929190818152602001828054611c2690612b6b565b8015611c735780601f10611c4857610100808354040283529160200191611c73565b820191906000526020600020905b815481529060010190602001808311611c5657829003601f168201915b5050505050905087878787878787879f509f509f509f509f509f509f509f505050505050505050919395975091939597565b60008054906101000a900473ffffffffffffffffffffffffffffffffffffffff1673ffffffffffffffffffffffffffffffffffffffff163373ffffffffffffffffffffffffffffffffffffffff1614611d33576040517f08c379a0000000000000000000000000000000000000000000000000000000008152600401611d2a90612a17565b60405180910390fd5b60006040518060a0016040528086815260200185815260200184815260200183815260200142815250905080600360003373ffffffffffffffffffffffffffffffffffffffff1673ffffffffffffffffffffffffffffffffffffffff1681526020019081526020016000206000820151816000019080519060200190611dba929190612291565b506020820151816001019080519060200190611dd7929190612291565b506040820151816002019080519060200190611df4929190612291565b506060820151816003019080519060200190611e11929190612291565b50608082015181600401559050507fc041a5bd71d08009783cc8d3794c7bd2b1da118dfa65935d31d12bbe489eecb08585858542604051611e569594939291906128db565b60405180910390a15050505050565b6004602052806000526040600020600091509050806000018054611e8890612b6b565b80601f0160208091040260200160405190810160405280929190818152602001828054611eb490612b6b565b8015611f015780601f10611ed657610100808354040283529160200191611f01565b820191906000526020600020905b815481529060010190602001808311611ee457829003601f168201915b505050505090806001015490806002018054611f1c90612b6b565b80601f0160208091040260200160405190810160405280929190818152602001828054611f4890612b6b565b8015611f955780601f10611f6a57610100808354040283529160200191611f95565b820191906000526020600020905b815481529060010190602001808311611f7857829003601f168201915b505050505090806003018054611faa90612b6b565b80601f0160208091040260200160405190810160405280929190818152602001828054611fd690612b6b565b80156120235780601f10611ff857610100808354040283529160200191612023565b820191906000526020600020905b81548152906001019060200180831161200657829003601f168201915b50505050509080600401805461203890612b6b565b80601f016020809104026020016040519081016040528092919081815260200182805461206490612b6b565b80156120b15780601f10612086576101008083540402835291602001916120b1565b820191906000526020600020905b81548152906001019060200180831161209457829003601f168201915b5050505050908060050180546120c690612b6b565b80601f01602080910402602001604051908101604052809291908181526020018280546120f290612b6b565b801561213f5780601f106121145761010080835404028352916020019161213f565b820191906000526020600020905b81548152906001019060200180831161212257829003601f168201915b50505050509080600601805461215490612b6b565b80601f016020809104026020016040519081016040528092919081815260200182805461218090612b6b565b80156121cd5780601f106121a2576101008083540402835291602001916121cd565b820191906000526020600020905b8154815290600101906020018083116121b057829003601f168201915b5050505050908060070180546121e290612b6b565b80601f016020809104026020016040519081016040528092919081815260200182805461220e90612b6b565b801561225b5780601f106122305761010080835404028352916020019161225b565b820191906000526020600020905b81548152906001019060200180831161223e57829003601f168201915b5050505050908060080154908060090160009054906101000a900473ffffffffffffffffffffffffffffffffffffffff1690508a565b82805461229d90612b6b565b90600052602060002090601f0160209004810192826122bf5760008555612306565b82601f106122d857805160ff1916838001178555612306565b82800160010185558215612306579182015b828111156123055782518255916020019190600101906122ea565b5b5090506123139190612364565b5090565b828054828255906000526020600020908101928215612353579160200282015b82811115612352578251825591602001919060010190612337565b5b5090506123609190612364565b5090565b5b8082111561237d576000816000905550600101612365565b5090565b600061239461238f84612a5c565b612a37565b9050828152602081018484840111156123ac57600080fd5b6123b7848285612b29565b509392505050565b6000813590506123ce81612c8c565b92915050565b600082601f8301126123e557600080fd5b81356123f5848260208601612381565b91505092915050565b60008135905061240d81612ca3565b92915050565b60006020828403121561242557600080fd5b6000612433848285016123bf565b91505092915050565b60006020828403121561244e57600080fd5b600082013567ffffffffffffffff81111561246857600080fd5b612474848285016123d4565b91505092915050565b6000806000806080858703121561249357600080fd5b600085013567ffffffffffffffff8111156124ad57600080fd5b6124b9878288016123d4565b945050602085013567ffffffffffffffff8111156124d657600080fd5b6124e2878288016123d4565b935050604085013567ffffffffffffffff8111156124ff57600080fd5b61250b878288016123d4565b925050606085013567ffffffffffffffff81111561252857600080fd5b612534878288016123d4565b91505092959194509250565b600080600080600080600080610100898b03121561255d57600080fd5b600089013567ffffffffffffffff81111561257757600080fd5b6125838b828c016123d4565b98505060206125948b828c016123fe565b975050604089013567ffffffffffffffff8111156125b157600080fd5b6125bd8b828c016123d4565b965050606089013567ffffffffffffffff8111156125da57600080fd5b6125e68b828c016123d4565b955050608089013567ffffffffffffffff81111561260357600080fd5b61260f8b828c016123d4565b94505060a089013567ffffffffffffffff81111561262c57600080fd5b6126388b828c016123d4565b93505060c089013567ffffffffffffffff81111561265557600080fd5b6126618b828c016123d4565b92505060e089013567ffffffffffffffff81111561267e57600080fd5b61268a8b828c016123d4565b9150509295985092959890939650565b6000602082840312156126ac57600080fd5b60006126ba848285016123fe565b91505092915050565b60006126cf83836127d5565b60208301905092915050565b6126e481612aed565b82525050565b60006126f582612a9d565b6126ff8185612ac0565b935061270a83612a8d565b8060005b8381101561273b57815161272288826126c3565b975061272d83612ab3565b92505060018101905061270e565b5085935050505092915050565b600061275382612aa8565b61275d8185612ad1565b935061276d818560208601612b38565b61277681612c2c565b840191505092915050565b600061278c82612aa8565b6127968185612ae2565b93506127a6818560208601612b38565b80840191505092915050565b60006127bf602583612ad1565b91506127ca82612c3d565b604082019050919050565b6127de81612b1f565b82525050565b6127ed81612b1f565b82525050565b60006127ff8284612781565b915081905092915050565b6000602082019050818103600083015261282481846126ea565b905092915050565b6000610100820190508181036000830152612847818b612748565b9050818103602083015261285b818a612748565b9050818103604083015261286f8189612748565b905061287e60608301886126db565b81810360808301526128908187612748565b905081810360a08301526128a48186612748565b905081810360c08301526128b88185612748565b905081810360e08301526128cc8184612748565b90509998505050505050505050565b600060a08201905081810360008301526128f58188612748565b905081810360208301526129098187612748565b9050818103604083015261291d8186612748565b905081810360608301526129318185612748565b905061294060808301846127e4565b9695505050505050565b6000610140820190508181036000830152612965818d612748565b9050612974602083018c6127e4565b8181036040830152612986818b612748565b9050818103606083015261299a818a612748565b905081810360808301526129ae8189612748565b905081810360a08301526129c28188612748565b905081810360c08301526129d68187612748565b905081810360e08301526129ea8186612748565b90506129fa6101008301856127e4565b612a086101208301846126db565b9b9a5050505050505050505050565b60006020820190508181036000830152612a30816127b2565b9050919050565b6000612a41612a52565b9050612a4d8282612b9d565b919050565b6000604051905090565b600067ffffffffffffffff821115612a7757612a76612bfd565b5b612a8082612c2c565b9050602081019050919050565b6000819050602082019050919050565b600081519050919050565b600081519050919050565b6000602082019050919050565b600082825260208201905092915050565b600082825260208201905092915050565b600081905092915050565b6000612af882612aff565b9050919050565b600073ffffffffffffffffffffffffffffffffffffffff82169050919050565b6000819050919050565b82818337600083830152505050565b60005b83811015612b56578082015181840152602081019050612b3b565b83811115612b65576000848401525b50505050565b60006002820490506001821680612b8357607f821691505b60208210811415612b9757612b96612bce565b5b50919050565b612ba682612c2c565b810181811067ffffffffffffffff82111715612bc557612bc4612bfd565b5b80604052505050565b7f4e487b7100000000000000000000000000000000000000000000000000000000600052602260045260246000fd5b7f4e487b7100000000000000000000000000000000000000000000000000000000600052604160045260246000fd5b6000601f19601f8301169050919050565b7f4f6e6c79206f776e65722063616e20706572666f6d2074686973206f70656e7260008201527f6174696f6e000000000000000000000000000000000000000000000000000000602082015250565b612c9581612aed565b8114612ca057600080fd5b50565b612cac81612b1f565b8114612cb757600080fd5b5056fea2646970667358221220e9fd72476b304ba4ea45d2541a1dabc8024674dad14f9a704c3698817881b30764736f6c63430008040033",
  "immutableReferences": {},
  "source": "// SPDX-License-Identifier: MIT\npragma solidity ^0.8.4.0;\n\n\ncontract FurDetective{\n    address owner;\n    uint[] storeChipIds;\n\n    struct OwnerInfo{\n        string fullName;\n        string cellPhone;\n        string location;\n        string email;\n        uint timeStamp;\n    }\n\n    struct RegisterPet{\n        string name;\n        uint chipId;\n        string appleTag;\n        string qrCode;\n        string animalType;\n        string gender;    \n        string breed;\n        string description;\n        uint timeStamp;\n        address sender;\n        // mapping(address => chipId) petOwner;\n\n    }\n    struct RegisteredPets{\n        uint[] chipId;\n        address petOwner;\n        // mapping(address => chipId) petOwner;\n\n    }\n    // OwnerInfo ownerinfo;\n    // uint[] public myPets;\n    mapping(address => RegisteredPets) private myRegisteredPets;\n    \n\n    // mapping(address => Balance) public balanceReceived;\n    mapping(address => OwnerInfo) private ownerInfoMapping;\n\n    // Track pets with owner address\n    mapping(address => RegisterPet) public registeredPetsMapping;\n\n    // Track pets with Chip Id\n    mapping(uint => RegisterPet) public searchPetByChipId;\n\n    // Track pets with Apple Tag\n    mapping(string => RegisterPet) public searchPetByAppleTag;\n\n    // Track pets with QR Code\n    mapping(string => RegisterPet) public searchPetByQrCode;\n\n   \n\n    // Emit events \n    event OwnerInfoEvent(string fullName, string cellPhone, string Location, string email, uint timeStamp);\n    event RegisterPetEvent(string name, string chipId, string appleTag, string qrCode, string animalType,\n        string gender, string breed, string description, uint timeStamp, address sender);\n\n    \n    constructor(){\n        owner = msg.sender;\n    }\n\n    modifier onlyOwner (){\n        require(msg.sender == owner, \"Only owner can perfom this openration\");\n        _;\n    }\n    function registerPetOwner(string memory _fullName, string memory _cellPhone, string memory _location, string memory _email) public onlyOwner {\n        OwnerInfo memory _ownerInfo = OwnerInfo({fullName: _fullName, cellPhone: _cellPhone, location: _location, email: _email,\n            timeStamp: block.timestamp\n            });\n        ownerInfoMapping[msg.sender] = _ownerInfo;\n        emit OwnerInfoEvent(_fullName, _cellPhone, _location, _email, block.timestamp);\n    }\n\n    function registerPets(string memory _name, uint _chipId, string memory _appleTag, string memory _qrCode,\n                        string memory _animalType, string memory _gender, string memory _breed, string memory _description) public onlyOwner{\n        RegisterPet memory _registerPet = RegisterPet({\n            name: _name, chipId: _chipId, appleTag: _appleTag, qrCode: _qrCode, animalType: _animalType, gender: _gender, \n            breed: _breed, description: _description, timeStamp: block.timestamp, sender: msg.sender \n            });\n        storeChipIds.push(_chipId);\n        RegisteredPets memory registeredPets = RegisteredPets({chipId: storeChipIds, petOwner: msg.sender});\n\n        registeredPetsMapping[msg.sender] = _registerPet;\n        searchPetByChipId[_chipId] = _registerPet;\n        searchPetByAppleTag[_appleTag] = _registerPet;\n        searchPetByQrCode[_qrCode] = _registerPet;\n        myRegisteredPets[msg.sender] = registeredPets;\n\n    \n\n    }\n    function getMyRegisteredPets(address petOwnerAddress) public view returns(uint[] memory) {\n        return myRegisteredPets[petOwnerAddress].chipId;\n    }\n\n    function getPetByQRCode(string memory _qrCode) public view returns (\n        string memory name, string memory gender, string memory breed, address sender, string memory fullName, string memory cellPhone, string memory location, string memory email\n        ) {\n        // grab the owner / sender and use that to pull registered owners info and return it.\n        string memory petName = searchPetByQrCode[_qrCode].name;\n        string memory petBreed= searchPetByQrCode[_qrCode].breed;\n        string memory petGender= searchPetByQrCode[_qrCode].gender;\n        address petOwnerAddress = searchPetByQrCode[_qrCode].sender;\n\n        string memory _fullName = ownerInfoMapping[petOwnerAddress].fullName;\n        string memory _cellPhone = ownerInfoMapping[petOwnerAddress].cellPhone;\n        string memory _location = ownerInfoMapping[petOwnerAddress].location;\n        string memory _email = ownerInfoMapping[petOwnerAddress].email;\n\n        return (petName, petBreed, petGender, petOwnerAddress, _fullName, _cellPhone, _location, _email);\n    }\n}\n\n",
  "sourcePath": "/Users/kenmartey/Documents/dev_things/blockchain/GBC/capstone/furdetective/contracts/FurDetective.sol",
  "compiler": {
    "name": "solc",
    "version": "0.8.4+commit.c7e474f2.Emscripten.clang"
  },
  "schemaVersion": "3.4.8",
  "updatedAt": "2022-08-19T17:00:36.130Z",
  "networkType": "ethereum",
  "devdoc": {
    "kind": "dev",
    "methods": {},
    "version": 1
  },
  "userdoc": {
    "kind": "user",
    "methods": {},
    "version": 1
  }
}